S01D00004574686572434154536C6176654669726D776172652E73726563FF
S2140040000000032091820100D1420000D14200004E
S214004010D1420000D1420000D14200000000000062
S214004020000000000000000000000000D142000078
S214004030D142000000000000D14200002D810100A6
S214004040D1420000D1420000D1420000D14200001F
S214004050D1420000D1420000D1420000D14200000F
S214004060D1420000D1420000D1420000D1420000FF
S21400407001800100118001002180010031800100D3
S21400408041800100518001006180010071800100C3
S2140040908180010091800100A1800100B1800100B3
S2140040A0C1800100CD800100DD800100ED800100AF
S2140040B0D1420000D1420000D1420000D1420000AF
S2140040C0D1420000D1420000D1420000D14200009F
S2140040D0D1420000D1420000D1420000D14200008F
S2140040E0D1420000D14200000000000000000000A5
S2140040F000000000D1420000957F0100D142000080
S214004100A17F0100AD7F0100D1420000D142000036
S214004110D1420000D1420000B97F0100D142000028
S214004120C57F0100D17F0100D1420000D1420000CE
S214004130D1420000D1420000D1420000D14200002E
S214004140D1420000D1420000D1420000D14200001E
S214004150D1420000D1420000D1420000D14200000E
S214004160D1420000D1420000DD7F0100D1420000B4
S214004170E97F0100F57F010000000000000000005C
S214004180390102003D010200410102004501020022
S214004190897F010081810100D1420000D1420000E8
S2140041A0D1420000D1420000D1420000D1420000BE
S2140041B0D1420000D1420000D1420000D1420000AE
S2140041C0D1420000D1420000D1420000D14200009E
S2140041D0D1420000FD800100D1420000D142000023
S2140041E015810100D1420000D1420000D1420000FA
S2140041F0D1420000D1420000D1420000D14200006E
S214004200D1420000D1420000D1420000D14200005D
S214004210D1420000D1420000D1420000D14200004D
S214004220D1420000D1420000D1420000D14200003D
S214004230D1420000D1420000D1420000D14200002D
S214004240D1420000D1420000D1420000D14200001D
S214004250D1420000D1420000D1420000D14200000D
S214004260D142000010B5054C237833B9044B13B186
S2140042700448AFF300800123237010BDC00A00205D
S21400428000000000944C03000C4B43B10C480D4951
S21400429010B5AFF300800C48036823B910BD0A4878
S2140042A0036833B97047094B002BF7D0BDE81040C0
S2140042B01847064B002BF5D0184700BF000000003B
S2140042C0944C0300C40A0020B40A0020000000003A
S2140042D0FEE700BF2DE9F0410E4B0F4E044698470F
S2140042E068B10E4F251801E0A54208D014F8011B4E
S2140042F03846B0470028F7D10020BDE8F0810D21F0
S2140043000648B0470028F7D033460A210348BDE8E0
S214004310F041184781D80200A1430100D0330020A5
S2140043202DE9F04F8C488D4BDFF8C482BDB098471E
S21400433000218B4B8B4898478B48C0478B48C0471B
S2140043408B48C0478B48C04783488B4B98478B4B5E
S21400435098478B4B1B68169393F85C30DBB9054681
S21400436041F2883405E07E4B9847169B93F85C3004
S2140043708BB9824B9847431BA3427A484FF0000103
S214004380F1D98048C04772A5D5E9004520462946A0
S214004390734B9847FAE7169A7B4B02F5CC541046B7
S2140043A09847043400216F486D4B98472046774B5A
S2140043B098470221764B774898470221764B7748F4
S2140043C098470221744B764898470221724B7548ED
S2140043D098470221744B754898470221724B7448DF
S2140043E098477449744B754A754802258D719D71BE
S2140043F02946744B957198472946724B72489847E0
S2140044002946704B714898476E4B71482946984725
S2140044106368002B00F09884169C41F68B1241F6D8
S2140044208813A25CE35C029241F68A1141F6891277
S214004430615C01916749A25C009218AC0D46179129
S2140044402046654A3021A8472046C0476348574D56
S214004450DFF84C91C0474048474B9847474B984732
S214004460012412900421631EDBB2052B00F268843F
S214004470DFE813F062045E045A045604470406009C
S2140044804B48494B9847564B9847564B0D901B68E0
S2140044901393002400232546CDE914671C46FF230A
S2140044A00A933F234FF0000806934D4B98474E4B18
S2140044B0089098474D4B0790064698470490F38916
S2140044C018049AB200F1A882079B1A88C2F3052244
S2140044D0002A40F0A382069B0993079B0A9A93F84A
S2140044E0039009F00F039A420C9340F09C8209F067
S2140044F001030F9309F00203109309F004031193CC
S21400450009F008030E93079BB3F80090CDE90A451F
S21400451001234546C846DDF8249000201F4649FA88
S21400452000F17A1EC907D2B240F1648248FA00F060
S21400453000F00101052A00F25D82DFE812F04B026E
S21400454053024F02570244025B0000BFAFF30080E5
S214004550000E270700000000D0330020594301005A
S21400456025870100001BB700101403003C1403004D
S214004570641403009014030041430100D186010037
S2140045804C3B0020B014030069950100CD55000097
S214004590B9030100303100208D0901009C31002054
S2140045A0FC3100205C320020F1160100BC320020F5
S2140045B040330020A030002000310020D030002002
S2140045C04C2900201D060100D42F002018300020A2
S2140045D05C3000208DD40200D014030004150300C4
S2140045E0DD860100DC2700209D620000A562000039
S2140045F0D5420000B34BB448A846DDE90A459847C3
S214004600079B9B8A03F00103984500F000829CB24A
S214004610AE48AF4B002C00F0D5829847002800F03B
S214004620668300240025079AD2F82490D2F82080CA
S214004630A94508BFA0452BD0A64BDDE914671C682A
S214004640002505F14001A44B09B220469847C5F164
S2140046502002A5F1200309FA02F229FA03F378B141
S21400466028FA05F616431E430168002306F00102E9
S21400467013434B680CBF0221042129FA05F798471B
S2140046800135402DDDD1CDE91467079A146A556AC5
S214004690D2F81890D3694F464FF000089946C8F1F3
S2140046A02000A8F1200105FA00F224FA08FA4AEAE6
S2140046B0020A25FA01F24AEA020A09FA00F027FA83
S2140046C008F2024329FA01FE0AF00100002108F16F
S2140046D0400C42EA0E0250EA010302F001020FFA11
S2140046E08CF108F1010803D07A4B18687B4B984789
S2140046F0B8F1400FD3D14FF00108069B7848DB078E
S2140047004CBF784B784B9847069B10F1000918BFB2
S2140047104FF001099F074CBF744B734B7448984782
S214004720069A00280CBF0023022343EA0903560713
S214004730079370484CBF6D4B6B4B9847069A079B88
S21400474000280CBF4FF000094FF0040949EA0303A4
S2140047501107079368484CBF644B634B9847079B09
S21400476000280CBF4FF000094FF0080949EA03097A
S214004770069B6248DA064CBF614B5B4B98470028A5
S2140047800CBF0023102349EA0309069B4E489B06EC
S2140047904CBF5B4B544B9847002840F0A7811FFA4C
S2140047A089F9049B5748A3F800904F4B98474E4B07
S2140047B010F10009544818BF4FF00109984708B196
S2140047C049F002095148484B984708B149F0040996
S2140047D00F9B002B00F05982109B002B00F04082AC
S2140047E0119B002B00F048820E9B002B00F0F281FC
S2140047F0474B48489847464B0E9047489847444B87
S2140048000A9046489847424B0790454898470E9965
S214004810079B0A9A049EDFED436A21EAE17122EAC9
S214004820E27223EAE37309B241EA024120EAE07049
S2140048301BB243EA004371609DF830001399B070D4
S2140048400022F270B36091F86C30088A47F6FF7168
S21400485041FA03F380B207EE900ADB43C3F30E037C
S214004860B8EEE77A07EE903A27EE267AF8EEE77A81
S214004870C7EE276AF5EEC06AF1EE10FA40F21F8224
S2140048809FED296A9FED297AF6EE007AE6EE867AA3
S214004890F4EEC77AF1EE10FA40F30A82099B049A06
S2140048A01B0203F47C5343EA0909A2F80E90918197
S2140048B0B8F1000F00F0E380064B94621968D562E9
S2140048C036E000BF61130100403300203835002079
S2140048D0612A0100DC280020B5260100E125010040
S2140048E030310020B1040100A1110100290E0100A1
S2140048F09C310020FC3100205C320020BC320020BD
S21400490025130100A0300020D03000200031002008
S214004910710801004C290020D42F002018300020F8
S2140049205C30002033B3A1420000C84200FEFF46C0
S21400493091F82C3093751746D1E910230020BA6100
S214004940FB61D1E92623F87591F892103A627B62F2
S214004950002940F08D80134314BF052301233E46F3
S214004960B382A14B9847A14B814616989847A04B17
S21400497098479D4B98479C4BA0EB09099847089A87
S2140049800D99531AB3F57A7F04993363A0EB0200AE
S2140049908CBFA3F57A73C3F57A7370638B63C1F823
S2140049A03C90944B9847129A831AB3F57A7F074641
S2140049B080F0D9800C9B0A93089B0D938E488F4BF2
S2140049C00021984771E58E488E4B984738467B1CE9
S2140049D0DFB2A4E58C4B8D489847F7E78C4B8D48A3
S2140049E09847F3E78A4B8C489847EFE7884B8B4805
S2140049F09847EBE7052F3846E9DD079B9B8AA846D4
S214004A0003F001039845DDE90A457FF400AEB8F1EE
S214004A10000F3FF472AE06E602F03F02069991429E
S214004A2067D1099159E519F001030CBF0221012154
S214004A300F937B487B4B984719F002030CBF02216B
S214004A40012110937848774B984719F004030CBF60
S214004A500221012111937548724B984719F00803FB
S214004A600E9314BF012102216E4B714898474AE508
S214004A7043F000437B623A6207233E4670E782F8C3
S214004A80288082F8298082F82A8082F82B8082F893
S214004A902C8082F82D8082F82E8082F82F8082F873
S214004AA0168082F8188082F8198082F81A8082F8B8
S214004AB01B8082F81C8082F81D8082F81E8082F897
S214004AC01F8082F8208082F8218082F8228082F877
S214004AD0238082F8248082F8258082F8268082F857
S214004AE0278082F817804346164639E749F02009A2
S214004AF057E62F4609924FF0010900212646154633
S214004B0045FA01F109F1FF3311F0010FDBB20CBFDA
S214004B1002210421052B00F2C180DFE803F0201CEF
S214004B2018140B032A46434B4348069234463D4628
S214004B309847D2E432483F4B9847494609F1010965
S214004B405FFA89F9DCE73D4B34489847F5E73B4B7D
S214004B5030489847F1E7394B2F489847EDE7384BF0
S214004B602A489847E9E7374B9847C1680368029197
S214004B708168019141680091334A179E602124A8FC
S214004B80B04724A8314B9847002800F09D8024ABFE
S214004B900344CDE904450DF190094546984602E0E8
S214004BA0C84500F08E8019F8011B2948294B984704
S214004BB00028F5D1A846DDE90445274B12971B6867
S214004BC01393F7E69847002840F08A808046002432
S214004BD0002592E51648214B984700283FF408AE7A
S214004BE049F0400904E600BFDD860100F1950100AA
S214004BF021570000D1860100C0D40100258701009E
S214004C00BC32002061130100CD04010030310020C9
S214004C10D5080100FC3100209C3100205C320020C9
S214004C204C2900201D060100D42F0020183000203B
S214004C305C300020F1160100403300208D09010091
S214004C40B9030100AD6200002815030081D80200F8
S214004C50D0330020A1430100DC270020A111010071
S214004C604148424B984700283FF4BAAD119B49F0A3
S214004C701009002B7FF4B8AD3D483C4B9847002800
S214004C803FF4B2AD49F02009AEE53A48374B9847B5
S214004C9000283FF4A1AD49F008099DE5B9F1050FDC
S214004CA049467FF74BAF2A4634463D46069214E403
S214004CB0FDEEE77ACDED077ABDF91C10EEE511465C
S214004CC0ECE5A846DDE904450D212B482B4B98471B
S214004CD000283FF472AF0A21284B274898476CE714
S214004CE02748284BA04698470024002505E51021B4
S214004CF0254B234898472248244B984700240025F4
S214004D0091E42846224B98473F23234113F0010F96
S214004D1004F10104E4B20CBF02210421FFF7A3BB97
S214004D201C4B1D489847EFE748461A4B9847EBE759
S214004D30184B1A489847E7E7194B1A489847E3E78D
S214004D40052CE1DDFFF79FBBDFF860E0164B1793FD
S214004D50BEE80F0018AC25460FC59EE8070003C541
S214004D602A70FFF771BB00BFD42F0020A1110100ED
S214004D70183000204C290020D0330020A143010029
S214004D8038350020B9400100113F010065400100A0
S214004D90F11601008D0901005C3200209C310020D4
S214004DA0B9030100303100208DD40200E81403005E
S214004DB0F0B48AB16D4F03460024B3F5805F04F16A
S214004DC0010603F1010503D23B440C5D83F87E40E7
S214004DD0B4B29442ABB2F0DB102840DC024492B28C
S214004DE0112A3AD9614BB3F88E10A3F87C10B2F5AD
S214004DF0917F32D35D4B93F89E1101F00F01082985
S214004E0005D80120884010F48B7F40F09580002163
S214004E100124112083F8AE4183F8AF1183F8B31153
S214004E2083F8B20140F203539A4216D94F4BB3F8B7
S214004E30800500F4E061B1F5807F2FD0B1F5407FAA
S214004E4068D010F4A06F65D020200021B2F5A16FC5
S214004E5083F8800583F8811518D2F0BC7047B0F54A
S214004E60907F7FDD40F20253984278DD40F2045393
S214004E709842F2DC13189BB2B3F5A16FEDD33B4B0F
S214004E80B3F8802502F4E062002AE6D16021002211
S214004E9083F8801583F88125F0BC7047D3F8820527
S214004EA081B2B1F5007F3FD3FF242546481C80B26F
S214004EB0B0F5007F83F8865583F887454CD200F618
S214004EC03C0003EB4000C488E5B2240A881C80B28C
S214004ED0B0F5007F83F8885583F8894539D200F607
S214004EE03C0003EB4000C088C4B2000A033189B21C
S214004EF0B1F5007F83F88A4583F88B0526D201F644
S214004F003C0103EB4101C988C8B2090A83F88C0545
S214004F1083F88D1560200021B2F5A16F83F8800517
S214004F2083F88115B2D298E701F63C0003EB400007
S214004F30C488E5B2240AB9E7002083F8AE1183F8E6
S214004F40AF0183F8B20183F8B3016BE7FF2108468F
S214004F50DCE7FF200446C9E7FF242546B6E70244FF
S214004F6092B25FE7024492B241E700BFDC0A00203B
S214004F702DE9F04F41F27E03324D33494FF6FF7272
S214004F80EA52CDB005F584534FF0FF3243F8042BB8
S214004F908B42FBD141F28E0141F2920C41F2960E09
S214004FA041F29A0701240CAE6FF001081A8045F80A
S214004FB00180602230460021DFF8A08045F80C40D2
S214004FC045F80E40EC51C0470322327023461F4A74
S214004FD001E0502B05D012F8011F0133DBB2002987
S214004FE0F7D1737002210022194C00E00146501CD4
S214004FF0A25C7254C2B2934201F10100C0B2F5DC69
S214005000864614480231CFB20246012301E0502BF7
S21400501005D012F8011F0133DBB20029F7D106F8DC
S2140050200E3000220C4C00E00F46511CA25CF255DC
S214005030CAB2934207F10101C9B2F5DCBB1CDBB270
S21400504001220FE0DC0A0020581F00209D150300F7
S2140050509C15030081150300801503000DCF020088
S214005060502A05D010F8017F0132D2B2002FF7D1B6
S21400507072540020471C205CF054591CF8B2C9B288
S21400508090420B46F6DB0133C3F34F04DB48670060
S21400509041F2FE030A22BFB20480EA524FB3002355
S2140050A018468B4200F184039BB24FEA630EB4BFEE
S2140050B016F800C04FF0000C0EF63C02BEF5007F5E
S2140050C005EB420910DAB9F806E013F0010F05EB1C
S2140050D042020EF47F4316BF5FFA8EFE43EA0C0CC4
S2140050E04EEA0C2CA2F806C0013080B2B842034645
S2140050F0D7DBDFF810C3BCE80F0004F1440A0DF15B
S2140051001C0EAEE80F001FFA8AF004F1490A1FFAD7
S2140051108AFA04F147030AF63C0B9BB204F14A0AEA
S21400512003F63C031FFA8AFA0AF63C0A05EB430329
S21400513004F14602019304F1420705EB4A0392B2DA
S21400514004F14B0A04F14306BFB202F63C021FFA12
S2140051508AFA05EB42020AF63C0AB6B204F14501A9
S21400516007F63C07009205EB470705EB4A0289B2B3
S21400517006F63C06029205EB4606DCF80020039293
S2140051804FF0290A00F63C0001F63C01A7F806A0FD
S214005190009A05EB400005EB41011027F78000263A
S2140051A0C680CE80D680019A04F14809D68004F1E4
S2140051B052021FFA89F904F14C0792B209F63C092B
S2140051C0BFB204F14D0002F63C0205EB490905EBBF
S2140051D04B0B05EB420207F63C0780B204F14E018A
S2140051E005EB4707009200F63C00029AA9F8066015
S2140051F089B204F14F0C04F1500AABF8066005EBD7
S214005200400001F63C011FFA8CFC1FFA8AFA04F1F2
S21400521051094FF4805BDE8005EB4101D6800CF629
S2140052203C0CA7F806B00AF63C0A28271FFA89F9AC
S214005230C78005EB4C0C642005EB4A0A09F63C09CE
S21400524004F15303C880012705EB49094FF4885140
S2140052509BB2ACF8067003F63C03AAF80610402191
S214005260A9F8061005EB4303009A4FF0200CA2F8AD
S21400527006C03146DF80A022BDF80C30AEF8003004
S21400528024A8C04704F154094FF01A0E0322122135
S21400529024AF8DF891E08DF893201FFA89F93046F7
S2140052A03B468DF892100DF11B020DF12D0C4FF0C0
S2140052B0600E12F8011F18720136F6B262459E7231
S2140052C083F809E0D87218739873D873597303F18A
S2140052D00803EED104F1550209F63C0305EB43033F
S2140052E092B2322102F63C02D98005EB420204F16A
S2140052F056034C215B00D1809BB20DF5947E59106D
S21400530001F63C02B1F5007F05EB42000DDAC088DD
S214005310397813F0010F00F47F4605EB420216BF02
S214005320C0B2314340EA0121D180013701337745CD
S2140053309BB2E4D1324B93E8070004AE86E8070040
S214005340A022002124A8C047327873788DF89D20CB
S2140053504FF0020E16228DF893E08DF8A2E04FF083
S214005360010EB0788DF8A5300C2700238DF891201B
S2140053708DF89AE070224FF0030E96F803808DF8B1
S214005380AD008DF892708DF898308DF89B308DF8C2
S2140053909C308DF89E308DF89F308DF8A0308DF8BB
S2140053A0A3308DF8A4308DF8A6308DF8A7308DF890
S2140053B0A8308DF8AB308DF8AC308DF8AE308DF867
S2140053C0AF308DF8B0308DF8AAE08DF899208DF8C2
S2140053D0A1208DF8A9208DF8B12096F804E08DF86C
S2140053E0BDE096F805E08DF8C5E096F806E08DF885
S2140053F0CDE04FF0050E4FF0040C05E0DC1B00205E
S21400540074150300601503008DF8BAE04FF0070E20
S2140054108DF8B2C08DF8CAE04FF0060C4FF0080EBB
S2140054208DF8B3308DF8B4308DF8B6308DF8B730CF
S2140054308DF8B8308DF8BB308DF8BC308DF8BE30A6
S2140054408DF8BF308DF8C0308DF8C3308DF8C4307D
S2140054508DF8C6308DF8C7308DF8C8308DF8CB3053
S2140054608DF8CC308DF8CE308DF8C2C004F1A20194
S21400547004F1A3008DF8B5808DF8B9208DF8C12011
S2140054808DF8C9208DF8CF3096F807C08DF8D2E099
S2140054904FF0090E8DF8D5C08DF8DAE096F808C002
S2140054A08DF8DDC04FF00A0E89B280B296F809C0BA
S2140054B08DF8E2E001F63C014FF00B0E00F63C00E2
S2140054C08DF8D0308DF8D3308DF8D4308DF8D630B6
S2140054D08DF8D7308DF8D8308DF8DB308DF8DC308D
S2140054E08DF8DE308DF8DF308DF8E0308DF8E33063
S2140054F08DF8E4308DF8E6308DF8E7308DF8E8303A
S2140055008DF8EB308DF8E5C08DF8EAE096F80AC025
S2140055108DF8D12005EB410105EB40008DF8D92030
S2140055208DF8E1208DF8E9208DF8EC3096F80BE048
S2140055308DF8EDC004F1A40676004FF0330C8DF81C
S214005540F5E04FF0340E8DF8F2708DF8EE308DF8F1
S214005550EF308DF8F0308DF8F3308DF8F4308DF8AC
S214005560F6308DF8F730A1F806C024AFA0F806E0B4
S2140055708DF8F120B3B20DF1F80E591001F63C0289
S214005580B1F5007F05EB42000DDAC088397813F0DC
S214005590010F00F47F4605EB420216BFC0B231434E
S2140055A040EA0121D18001370133BE459BB2E4D1E8
S2140055B004F1D8039BB203F63C0305EB43054FF614
S2140055C0FF73EB804DB0BDE8F08F00BFF8B54B4CD5
S2140055D04B4F03462046282240F8043B0021B8479C
S2140055E04022002104F12C00B84704F16C0641F279
S2140055F0846104F5B45041F28862002541F2896363
S214005600E566A4F87C50655005602946A55404F16B
S2140056107E004FF480527560B560F560E554B8477B
S21400562029464FF400723748B847FFF7A1FCB4F894
S2140056307C303549354F84F88E30102284F884202B
S2140056401A0A4FF4C003DFF8D4E084F88F20C4F8B9
S2140056507E3511220123C4F88E18C4F892780421EE
S2140056602B482C4FC4F896E884F8815084F886506E
S21400567084F88750C4F88A5084F8905084F8915083
S21400568084F89F5184F8AF5184F8B25184F8B3512E
S214005690C4F87E58C4F88258C4F88658C4F88A58A5
S2140056A084F87E2084F8852084F88E2184F87F3064
S2140056B084F8803084F88F3184F89E3184F8AE31D7
S2140056C084F8821084F88310A6F1400EC4F89A0875
S2140056D075460FCDB54238607960BA60FB60AE465D
S2140056E007F11007F4D141F28A60002341F290617D
S2140056F0094A235063549380F8BD00BFDC0A00209B
S2140057000DCF02005A1F0020001028006400010080
S214005710200001005A2000206621002000114000D1
S214005720F0B40A4D0A4E6A69EA6305F12C076C3537
S2140057303C460FCCAC4230607160B260F3602746E6
S21400574006F11006F4D1F0BC704700BFDC0A00205A
S2140057505A200020002800F02485002900F021852A
S2140057602DE9F04F02891B2AADF21C6D054640F369
S214005770A7800024049123460BA90E22BE4E0B944C
S2140057800C940D94ADF83840B0470E2840F0988041
S2140057902C89A4F10E039BB21F46039340F2DA5302
S2140057A09F423A4600F28C8003460FA92846B0472F
S2140057B0874240F08580039B012B74DDBDF83C20BA
S2140057C0103CC2F30A02A4B2A24213466BDC092ABA
S2140057D069DD0B2ADFF8ACB240F39D8092460DF1EE
S2140057E03E09B9F8068099F80020B9F80210B9F811
S2140057F00470C8F30A0404F10C069E4255DCA2F1BC
S2140058000A03022B09F10A0564D80A2AD9F80230DD
S21400581000F098820B2A00F04581012C84BFB9F86D
S2140058200A30ABF80430BBF890380593002B00F034
S21400583037840693BBF89878002F08BF40279C4211
S21400584080F2D183002C40F0BC848C4CDFF84CE214
S21400585004F1200C20686168A268E36877460FC7E9
S21400586010346445BE46F5D120686168844FAEE8C2
S2140058700300DFF82CE2DBF81430CBF83C3007F1FD
S214005880400C3C460FCC6445CEF80000CEF8041021
S214005890CEF80820CEF80C3027460EF1100EF0D1C8
S2140058A00322002725E0DFF8DCB1DBF87030013397
S2140058B0CBF870306FF005000DF21C6DBDE8F08F70
S2140058C0704A136F6FF00500013313670DF21C6DFD
S2140058D0BDE8F08FD31F022B6ED9531E022B6BD957
S2140058E0131F022B03D8BBF87C308B4264D02746AC
S2140058F00022EB19EA5518F4004F4FF000025A70D8
S21400590009D0AAEB060A1FFA8AFABAF10B0FB144BD
S21400591053463FF666AFDBF86C30049ACBF80020AF
S21400592041F28A625849DDF832004BF80200013332
S21400593041F29062BDF83600CBF86C30039B88804D
S21400594001210BF80210002B00F0F28319464FF4E9
S21400595020720E204D4B98470546002800F02884FC
S214005960039A4B4B0FA998470446002840F0D08175
S214005970DBF80010474C0A460DF1320352F82E0FA2
S21400598009909688ADF8286048F6A400009009AA09
S21400599008462946A047404B044628469847002C10
S2140059A000F01783DBF8783020460133CBF87830E8
S2140059B00DF21C6DBDE8F08F072A25D89223D34040
S2140059C0DB4313F0010325D184B1781CB7F5805F63
S2140059D00BEB070C03F1010E02460AD29CF87E2060
S2140059E0EA541FFA8EF3A34287B2EEDB2746012263
S2140059F07FE74FF00000E8541FFA8EF3A34297B2F9
S214005A00E3DB2746012274E7082A03D9092A3FF672
S214005A106EAF05E04FF49273D340DB0700F185814B
S214005A204FF41273D340DB4313F001037FF45FAFF0
S214005A302246294638460593FFF7BAF9002CD5D0FA
S214005A40059B781CB7F5805F0BEB070C03F1010E86
S214005A50024608D29CF87E20EA541FFA8EF3A34230
S214005A6087B2EEDBC2E74FF00000E8541FFA8EF371
S214005A70A34297B2E5DBB9E7516800005A1F002041
S214005A80080B0020DC0A002066210020416300008D
S214005A90C16800003D9F0000A5660000E00A0020E7
S214005AA05A200020012C07D9B9F80A20ABF80420A8
S214005AB0B4F5007F3FF61BAF9BF88A26D207274631
S214005AC006D59BF883269BF8821651EA022142D11E
S214005AD09BF89A26D00707D59BF893269BF8921634
S214005AE051EA022140F0DA809BF8AA26D10706D5B3
S214005AF09BF8A3269BF8A21651EA02215ED19BF8DA
S214005B00BA26D20707D59BF8B3269BF8B21651EAF9
S214005B10022140F08980894A1178002940F00283EA
S214005B20012142F8083C11701A469A1A11192829C0
S214005B3040F221831A19B2F5007F40F2B682B3F51F
S214005B40805F06D3A3F580531A19B2F5007F40F2A2
S214005B50AC820022CDE69BF88926022AB8D19BF8B3
S214005B6081269BF880E69BF87E06120642EA0E42E5
S214005B709BF87FE6024342EA0E229342A8D3A3EBA9
S214005B80020E0EEB04029142A2D3BBF89018002935
S214005B909ED09BF887C69BF88626BBF88E0842EAFE
S214005BA00C22724492B2904292DC101A80B2021911
S214005BB091428DDBB2F5007F8ADC77E29BF8A9265E
S214005BC0022A9CD19BF8A1269BF8A0E69BF89E068D
S214005BD0120642EA0E429BF89FE6024342EA0E2273
S214005BE093428CD3A3EB020E0EEB0402914286D3B3
S214005BF0BBF89018002982D09BF8A7C69BF8A6266B
S214005C00BBF88E0842EA0C22724492B290423FF7EA
S214005C1076AF101A80B202199142FFF670AFB2F555
S214005C20007F3FF76CAF41E29BF8B926022A7FF46B
S214005C3072AF9BF8B1269BF8B0E69BF8AE0612064C
S214005C4042EA0E429BF8AFE6024342EA0E22934235
S214005C50FFF461AFA3EB020E0EEB04028A423FF69E
S214005C605AAFBBF8901800293FF455AF9BF8B7C65B
S214005C709BF8B626BBF88E0842EA0C22724492B213
S214005C808242FFF648AF101A80B202198A423FF7E6
S214005C9042AFB2F5007F3FF73EAF07E29BF899268A
S214005CA0022A7FF421AF9BF891269BF890E69BF89A
S214005CB08E06120642EA0E429BF88FE6024342EA3E
S214005CC00E229342FFF410AFA3EB020E0EEB04027B
S214005CD09142FFF409AFBBF8901800293FF404AFD7
S214005CE09BF897C69BF89626BBF88E0842EA0C22CD
S214005CF0724492B290423FF7F7AE101A80B2021981
S214005D009142FFF6F1AEB2F5007F3FF7EDAECDE182
S214005D10DBF878300A4A01332846CBF878309047CB
S214005D2020460DF21C6DBDE8F08F38462246294607
S214005D30FFF73EF827460122DBE500BF642100207E
S214005D40A5660000B4F5007F00F2FB819BF88A266A
S214005D50D10727463CD59BF883269BF8821651EA46
S214005D60022135D09BF88926012A31D19BF881265D
S214005D709BF880E69BF87E06120642EA0E429BF8E7
S214005D807FE6024342EA0E22934221D3A3EB020EA1
S214005D900EEB04028A421BD8BBF89818C1B19BF8D8
S214005DA087C69BF88626BBF8960842EA0C22724401
S214005DB092B282420CDB121A92B21019884207DCA9
S214005DC002F5807292B21119B1F5007F40F3C080DF
S214005DD09BF89A26D2073BD59BF893269BF89216FB
S214005DE051EA022134D09BF89926012A30D19BF83B
S214005DF091269BF890E69BF88E06120642EA0E4223
S214005E009BF88FE6024342EA0E22934220D3A3EB8E
S214005E10020E0EEB040291421AD3BBF89818B9B1E1
S214005E209BF897C69BF89626BBF8960842EA0C2283
S214005E30724492B290420BDC121A92B2101981424E
S214005E4006DB02F5807292B21119B1F5007F7FDD94
S214005E509BF8AA26D0073BD59BF8A3269BF8A2164C
S214005E6051EA022134D09BF8A926012A30D19BF8AA
S214005E70A1269BF8A0E69BF89E06120642EA0E4272
S214005E809BF89FE6024342EA0E22934220D3A3EBFE
S214005E90020E0EEB040291421AD3BBF89818B9B161
S214005EA09BF8A7C69BF8A626BBF8960842EA0C22E3
S214005EB0724492B290420BDC121A92B210198142CE
S214005EC006DB02F5807292B21119B1F5007F3FDD54
S214005ED09BF8BA26D1073DD59BF8B3269BF8B21699
S214005EE051EA022136D09BF8B926012A32D19BF816
S214005EF0B1269BF8B0E69BF8AE06120642EA0E42C2
S214005F009BF8AFE6024342EA0E22934222D3A3EB6B
S214005F10020E0EEB04028A421CD8BBF89818C9B1D0
S214005F209BF8B7C69BF8B626BBF8960842EA0C2242
S214005F30724492B282420DDB121A92B21019884253
S214005F4008DC02F5807292B21119B1F5007F01DC0F
S214005F50059212E09C4A1178002900F0FD8052F864
S214005F60052C934280F0FD801A19B2F5007F00F2EE
S214005F70048103F580739BB20593944BDFF864C2EB
S214005F80CDF818801A46DBF81430CBF83C30904633
S214005F90C646BEE80F00CCF80C308D4BCCF800009F
S214005FA09E45CCF80410CCF80820F0460CF1100CF6
S214005FB0EED1059BDDF8188003F5A3511E3122466D
S214005FC059442846834B98470122012C00F2BA8098
S214005FD08FE4DBF8743020460133CBF874300DF2D2
S214005FE01C6DBDE8F08F059A7A4B7B48294698478A
S214005FF07A4BDFF8E4C1CDF81C809846DCF80C300C
S214006000DCF80000DCF80410DCF80820C646AEE831
S2140060100F00734B0CF1100C9C45F046EED1DCF8EB
S2140060200000DCF80410DDF81C80684ADFF8B4C114
S214006030734603C3DBF81430CDF81C80CBF83C3035
S2140060409046C646BEE80F00CCF80C30604BCCF845
S21400605000009E45CCF80410CCF80820F0460CF161
S214006060100CEED1069BDDF81C809C4240F393801A
S214006070059A5C49A31A9BB29F42A8BF1F46AB185D
S21400608018463A46534B9847012F40F28480BBF897
S2140060902C2005996A54120A42702746032228E4E7
S2140060A0282306930593FFF7C5BB98B200F5A350C7
S2140060B01E30224658442946464B474C9847DFF840
S2140060C01CC1E36820686168A268E646AEE80F0077
S2140060D0434B10349C42F446F3D1206861683B4B36
S2140060E0DFF800E1ACE803001A46DBF81430CDF820
S2140060F01480CBF83C3002F1400C904644460FCC5E
S2140061006445CEF80000CEF80410CEF80820CEF88D
S2140061100C30A0460EF1100EF0D1DDF814800122EE
S214006120FFF7E7BB52F8082C9342FFF403ADFCE4FC
S214006130DBF878300133CBF878306FF00F00FFF7DC
S214006140BBBB2746BBF82C3089F80A301B0A89F8F7
S2140061500B300122FFF7CDBB012142F8053C117040
S2140061601A469A1A111940293FF6FEAE02F58072B9
S21400617093B2059301E790B298E7B3F5805F0ED32C
S214006180A3F580522244B2F5007F08D8A3F57063C9
S2140061909BB20593F1E627460322FFF7AABB00222F
S2140061A013E7114A136F013313676FF00F00704740
S2140061B0DBF878300133CBF878304FF0FF30FFF75C
S2140061C07BBB224610E700BF65210020080B00209D
S2140061D0480B002011CD02005A1F0020E00A0020C4
S2140061E07A1F00205A200020DC0A0020F0B5264D39
S2140061F02A6885B0002A41D006464FF42072402116
S2140062000E20224B98470746002831D0402205F141
S2140062102C011F4B9847044608BB29681D4C0A46AC
S214006220334652F82E0F02909688ADF80C6048F66A
S214006230A400009002AA08463946A047164B04461A
S214006240384698472CB1AB6F01332046AB6705B094
S214006250F0BD6B6F204601336B6705B0F0BDAB6FCA
S2140062600D4A01333846AB679047204605B0F0BD6F
S214006270AB6F0133AB674FF0FF30E8E7AB6F01332E
S214006280AB676FF00F00E2E7DC0A00204163000016
S214006290C16800003D9F0000A566000000487047EA
S2140062A0E00A002000487047080B002000487047AE
S2140062B0480B002048B341B370B584B00024234691
S2140062C0019400940294ADF80C400D460E226946E7
S2140062D00F4C0646A0470E2813D1BDF80C204AF2F4
S2140062E088439A420DD129463046FFF733FA0446D2
S2140062F008B104B070BD3046064B9847204604B03F
S21400630070BD6FF0050004B070BD6FF00F007047F1
S21400631051680000A5660000074A084B1068002276
S2140063201A7010B906E0C06820B1436F002BFAD08F
S21400633001F0F2BB704700BF98410020904100205A
S214006340412A2DE9F8431446894664D05DD9B2F552
S214006350C17F1FFA80F82AD0B2F5207F57D108F106
S2140063600303CA1C22F0030223F0030313449BB268
S2140063700546934203F1100080B248D3824246D8C5
S21400638008F002FB0746002842D0002143190A46BF
S21400639069F30F024B48F860133323F0030369F3E5
S2140063A01F4287E80A00BA603846BDE8F883002630
S2140063B0454D374640F2EC540AE03060A9EB030343
S2140063C01FFA83F94FF000080646B9F1000F1FD0F8
S2140063D00E2008F095FB08F1030323F00303E31AED
S2140063E09BB2804408F113084B4528BF4B4600215A
S2140063F028F0030220B380E80600A0F80890438146
S214006400C560002FD9D10746D8E7012A03D0002758
S2140064103846BDE8F8830D2008F072FB07460028D2
S214006420F6D00023012204734373C3738273A0F86B
S2140064300890A0F80A90036043603846BDE8F883E9
S214006440224C23780122227003F0FF0543B3002F6D
S214006450DDD0BB7B013BDBB2BB73002BD7D17B7B94
S2140064603C689B0714D43B7B03F00F03022B1FD022
S214006470012B22D083B1002CC9D0A37B013BDBB219
S214006480A3732746002BC2D17B7B3C689B07EAD5CB
S2140064903B6938469847EEE7384608F089F9EAE758
S2140064A029460B4803F070FD0028D0D02570CEE7B3
S2140064B039460E2008F034FBDDE739460D2008F09B
S2140064C02FFBD8E7800001008200010090410020E9
S2140064D01963000070B4033020F00300BDF81050BC
S2140064E0039C0E18AE420FD804B104441846022688
S2140064F001250023027346738573C37344600181CC
S2140065004181036070BC7047002070BC704700BFBC
S21400651038B503898B4239D942890D469542A3EB9B
S2140065200101044689B201D808E023895B1A238159
S2140065302468AD1A6289ADB2AA42F6D3237B190746
S21400654004D1954202D0637B9A0730D520686581D6
S2140065502581C0B1837B013BDBB283739BB9437B50
S21400656005689B0716D4037B03F00F03022B14D099
S214006570012B17D05BB135B1AB7B013BDBB2AB7304
S2140065802846002BEBD00023236038BD38BD08F02A
S2140065900FF9F0E703699847EDE701460E2008F08B
S2140065A0BFFAE8E701460D2008F0BAFAE3E76368A9
S2140065B01B1BE918204689B208F074F90446C5E7A3
S2140065C058B1B1F5803F08D209B90846704703892B
S2140065D08AB213449BB29A4201D90120704730B464
S2140065E090F90C40002C02DB012030BC7047446858
S2140065F000F11005611AA942F6D34489416022448D
S214006600038142810020F0E798B1B1F5803F10D2B7
S21400661089B143898AB29A420BD830B44568048956
S2140066209B1A2944A21A43814160028130BC002093
S2140066307047012070470846704700BF002930B4F5
S21400664004DB58B391B9002030BC704730B34942E0
S21400665043898AB29A4221D8456804899B1A2944FC
S214006660A21A4381416002810020EDE703898AB2C5
S21400667013449BB29A4211D890F90C40002C07DBC9
S2140066804468611A44894160224403814281DAE702
S214006690456800F11004691AA142F3D2012030BC0B
S2140066A0704700BF38B578B3857B013DEDB2857382
S2140066B08DB129E0037B03F00F03022B1AD0012BC8
S2140066C01DD0A3B10135EDB27CB1A37B013BDBB29B
S2140066D0A37320464BB9437B04689B07EAD503693E
S2140066E001359847EDB2002CEFD1284638BD08F0AA
S2140066F05FF8E7E701460E2008F012FAE2E70146E7
S2140067000D2008F00DFADDE70025284638BD00BF4D
S21400671038B10023006801339BB20028FAD118462E
S21400672070470346FBE700BF10B1837B01338373DA
S214006730704700BF98B191B1026830B40AB90FE053
S214006740224603890D8914682B4403811046002CC9
S214006750F6D130BC08891389116003441381704751
S2140067600246F6E7B8B1A9B1026830B40AB918E033
S214006770224603890D8914682B4403811046002C99
S214006780F6D11389088911600344138130BC8B7BD2
S21400679001338B7370470029FCD08B7B01338B73DE
S2140067A070470246EDE700BF00284DD02DE9F041C6
S2140067B00D46002944D002890B899A4206463FD3EB
S2140067C000274C89B846738969687068E21BA3EB9A
S2140067D00804944228BF144640443944224626F012
S2140067E097FA6B8927449F42738928BF2D68A04477
S2140067F028BF002798450DD095B16C892B899C42FF
S21400680015D0328973899A42DDD1336893B95DB168
S2140068106C89D8E736688EB14FF00008002DECD1B1
S214006820328973899A42F0D02846BDE8F0812B68F9
S214006830002BE6D06FF00500BDE8F081002DF3D008
S2140068406FF00F00BDE8F0816FF00F00704700BFDB
S2140068502DE9F041074650B30E4661B3154662B3C4
S2140068604FF0000806EB08007A8953B19A42A3EB72
S214006870020106D83F688BB2002FF3D14046BDE830
S214006880F081D41AA4B2AC4228BF2C4679682D1BDE
S214006890224619444444ADB226F03AFA1FFA84F868
S2140068A03F68002DEAD00023002FDBD1E6E78046C4
S2140068B04046BDE8F0818846E0E79046DEE700BF48
S2140068C018B32DE9F0418846D9B10389934216469C
S2140068D0054612D300276AB16C896868B44228BF9F
S2140068E0344608EB0701224626F012FA361B2744E8
S2140068F02D68F1D10020BDE8F0814FF0FF30BDE8F3
S214006900F0816FF00F00BDE8F0816FF00F00704768
S214006910002847D02DE9F0411646428993420F469B
S214006920044603D20BE062899A4208D824689B1A70
S2140069309BB2002CF7D14FF0FF30BDE8F0812089E4
S21400694099198842F7DBD21A9642606822DD95B222
S214006950761B2A4618443946B6B226F0D9F93D4485
S214006960EEB127680FB305B33B89B342E3D34FF0CC
S21400697000087C897868B44228BF344605EB0801D5
S214006980224626F0C5F9361BA0443F68F1D1002008
S214006990BDE8F08132461844394626F0B9F90020A1
S2140069A0BDE8F0814FF0FF3070476FF00F00BDE894
S2140069B0F08100BF41292DE9F04717460C46B2F892
S2140069C008906DD065D9B1F5C17F1FFA80FA31D035
S2140069D0B1F5207F5FD10AF1030309F1030222F02B
S2140069E0030223F0030313449BB20546934203F1CC
S2140069F0100080B24FD382424DD807F0C5FF8046C4
S214006A00002848D04319002113330A4623F0030315
S214006A1069F30F0288E80A0069F31F425148C8F874
S214006A200820C8F80C0039464046FFF7BDFE404631
S214006A30BDE8F08700244C4EA04640F2EC550AE034
S214006A402060A9EB03031FFA83F94FF0000A0446FF
S214006A50B9F1000FE7D00E2008F052F80AF1030350
S214006A6023F00303EB1A9BB282440AF1130A4B4548
S214006A7028BF4B4600212AF0030240B380E80600F8
S214006A80A0F808904381C660B8F1000FD8D18046C0
S214006A90D7E7012904D04FF000084046BDE8F0874C
S214006AA00D2008F02DF880460028F4D0002301229F
S214006AB0A0F80890A0F80A9004730360436043733C
S214006AC0C373827339464046FFF76EFEAFE7274C26
S214006AD023780122227003F0FF058BB3B8F1000F74
S214006AE0D9D098F80E30013BDBB288F80E30002B78
S214006AF0D1D198F80D30D8F800409B0717D498F8F5
S214006B000C3003F00F03022B22D0012B25D09BB1B3
S214006B10002CC0D0A37B013BDBB2A373A046002BA6
S214006B20B9D198F80D30D8F800409B07E7D5D8F8CB
S214006B30103040469847EBE7404607F039FEE7E757
S214006B4029460B4803F020FA0028C7D02570C5E771
S214006B5041460E2007F0E4FFDAE741460D2007F035
S214006B60DFFFD5E780000100820001009041002091
S214006B701963000058B14389994203D208E043895B
S214006B808B4205D80068C91A89B20028F7D1704729
S214006B9043685A54704700BF70B50646806F18B1F8
S214006BA0FFF780FD0023B367746F6CB163682568D8
S214006BB018460BB1FFF776FD2146042007F0B0FF1C
S214006BC02C46002DF2D17567F46E4FF6FF733386B0
S214006BD064B16368256818460BB1FFF763FD21466C
S214006BE0042007F09DFF2C46002DF2D1346F64B1CF
S214006BF06368256818460BB1FFF754FD214604204C
S214006C0007F08EFF2C46002DF2D10023F366336783
S214006C10A6F8683070BD00BF30B5037D85B0044669
S214006C2019B1042B13D0072B11D0012B00F09E8036
S214006C3048D3022B34D0042B00F0C480072B00F07E
S214006C40E480032B00F0BE80002005B030BDA26FAC
S214006C50002A49D0238BE08A626A216D0293231DA5
S214006C60019000932046234602F0F2FB237D012B81
S214006C7004D90A2B02D02046FFF78EFF674B1A680E
S214006C80944242D0002A42D0D3689C4200F0AD80A5
S214006C90002B3CD0DA68944200F0A8801346F7E751
S214006CA05E4B1A6894423FD0002A3FD0D3689C427D
S214006CB000F09F80002B39D0DA68944200F09A806A
S214006CC01346F7E7E38ACBB1554B1A68944211D0C6
S214006CD092B1D3689C4200F094806BB1DA6894421B
S214006CE000F090801346F8E7218D41F2D062914281
S214006CF0B0D19AE7E2681A600023E36021460220DA
S214006D0007F00EFF002005B030BDE2681A60454B64
S214006D10454A1B68012100259C421170E560EDD1B3
S214006D2002F03AF9284690E7E2681A600023E3602A
S214006D302046FFF731FF237D0A2B0AD0012B08D00F
S214006D40638BDA0705D543F002036383204602F01F
S214006D5073FC0025344B25750122E582214602206E
S214006D601A7007F0DDFE284605B030BD2F4900201A
S214006D7001F10C0551F8043B1B6833B1DA6F9442FD
S214006D8008BFD867DB68002BF8D1A942F2D1284BA0
S214006D901A68944209D052B1D3689C422DD033B1C0
S214006DA0DA6894422AD01346F9E7E2681A600025AA
S214006DB0E5602575E5822146032007F0B1FE2846EA
S214006DC005B030BD204602F0E5F928B90523237545
S214006DD0204602F031FC37E7431C7FF436AF638B66
S214006DE043F00803638300202FE71346E268DA6067
S214006DF08DE71346E268DA6098E71346E268DA60E1
S214006E00D5E71346E268DA6076E7204602F0C2F974
S214006E100028E1D109232375DAE700BF9841002056
S214006E20A4410020AC41002094410020B815030086
S214006E30A0410020002946D0F8B56AB3088D158910
S214006E400544ADB241F2D0639D4221D91D460846A5
S214006E504E6AC96A05851446428E40F66837BA42BD
S214006E6094BF8A18CA1933449A1A002A23DB5B1A7D
S214006E7040F2B3529342458505D9438B43F0020353
S214006E80438302F0D9FB2046FFF70CFC0020F8BD38
S214006E90A842DBD82B46DAE7002BF7D10B7D012B77
S214006EA003D04B8B43F010034B830846BDE8F840F5
S214006EB00121FFF7B1BE731A002B02DD00234385C4
S214006EC0E1E78B1BFBE76FF00F00704708B526F075
S214006ED0AFF8034B6FEA80406FEA9040188008BD19
S214006EE0000000200146022007F01ABE2DE9F04FF0
S214006EF087B00591002865D0017D0A29044600F078
S214006F00A980D0F850A0D0F824B0D0F89080D0F85F
S214006F101090002959D1C68A002E3FD10596276FBA
S214006F2067B17B683D6818460BB1FFF7BBFB394677
S214006F30042007F0F5FD2F46002DF2D1E76E67B16D
S214006F407B683D6818460BB1FFF7ACFB394604205A
S214006F5007F0E6FD2F46002DF2D1676F67B17B681C
S214006F603D6818460BB1FFF79DFB3946042007F035
S214006F70D7FD2F46002DF2D1059B002B52D121467E
S214006F80022007F0CDFDB8F1000F1BD048466FF089
S214006F900C01434607B0BDE8F04F18473E4B1A6851
S214006FA0904273D04AB1D368984247D02BB1DA6882
S214006FB0944244D01346002BF9D100231E46E360CA
S214006FC00593ACE707B0BDE8F08F344BC68A1A6865
S214006FD0904209D052B1D368984237D033B1DA68BC
S214006FE0944234D01346F9E7C2681A600023012998
S214006FF0E36010D02046FFF7CFFD237D0A2B0AD092
S214007000012B08D0638BDA0705D543F002036383B0
S214007010204602F011FB224A00230121117023753D
S214007020E3827CE7238B0293231D8DE848005A46B3
S21400703051462346204602F00BFAA0E71346E268C4
S214007040DA6000231E46E360059368E71346E268AD
S214007050DA60CBE7134B1A6890421AD05AB1D3685D
S214007060984205D03BB1DA68944202D01346F9E75D
S2140070701346E268DA60002321460220E3602375A7
S214007080E38207B0BDE8F04F07F04ABDC2681A6059
S21400709093E7C2681A60EEE7A441002098410020FA
S2140070A094410020A84100200121FFF71FBF00BF28
S2140070B0F0B4058DC46A418E466A2B1B40F66837CD
S2140070C0B942024603EB060094BF431AC31B002BCB
S2140070D002DB5585F0BC7047331B002B04DD002314
S2140070E018465385F0BC7047A41B54850020F0BC9E
S2140070F0704700BF2DE9F04FDFF8C882DFF8C8A25E
S214007100D8F800209AF80030DFF8C0B20132013318
S21400711087B0C8F800208AF80030A54B1C68002C01
S21400712075D04FF000099AF80030A27F9A4200F01E
S214007130D180227DA377022A94F8423000F0D780CF
S2140071400B2B00F2C48094F89970002F00F0408159
S21400715094F89A300B2B00F2BA80964B1F4494F8A2
S2140071609830F97B994200F2AB81B4F86070002F3A
S21400717040F08980204602F0B3FC002800F08A80A8
S214007180227D0121062A00F09680667A16F008060F
S21400719000F0AB80042A00F0E080072A00F0DD80D3
S2140071A000230593666F56B1D8F80020206AB4F91C
S2140071B04030121A03EB4303B2EB430F49D2237D50
S2140071C0032B57D0092B00F09980002F40F06F81D9
S2140071D0237F627FE5680133DBB29A42237712D8B9
S2140071E0D4F88C20002323778BF80030002A00F098
S2140071F044812146206990479BF80030002B8CD1B3
S214007200002800F03A81A1462C46002C8BD16A4E0D
S21400721034680025D4B1D8F80030226A9B1AF02BC7
S2140072205ED9237D012B04D90A2B02D02046FFF716
S214007230B3FC002D00F05181E368EB60E76821465F
S21400724002203C4607F06CFC002CE4D107B0BDE8F9
S214007250F08F7368356818460BB1FFF723FA31468E
S214007260042007F05DFC2E46002DF2D1237D6567D5
S214007270032BA7D1D8F80030226A9B1A282B43D8B4
S214007280002FA5D040E03946204601F0E9FE002850
S21400729000F0268194F899300027062B84F8987021
S2140072A03FF66EAF227D0133062A84F899304FF000
S2140072B001017FF46AAF638BDB067FF571AFD8F808
S2140072C00030226A9B1A282B88BF0F4668E70221E7
S2140072D0012757E7A146E468002C7FF424AF96E721
S2140072E02546E468002C96D1B0E705965AE7052BAC
S2140072F07FF629AF00230593012753E7D8F800301F
S214007300226A9B1AF02BBBD9D4F890502046FFF780
S21400731043FCE368B9F1000F00F0DC80C9F80C30DC
S214007320059B002B40F0B680214602202669E468C3
S21400733007F0F6FB00238BF80030002D3FF465AF16
S21400734030466FF00C01A8479BF80030002B7FF406
S214007350E4AE002C7FF4E7AE59E7D4F89450D8F8A2
S2140073600020206A154E05F5242303F6B843A6FB35
S2140073700363121AB2EB531F00F28880104994F888
S2140073809B3001FB03530D49A1FB0313B2EB531FC4
S2140073907FF606AF204602F035FB00287FF400AFEC
S2140073A094F89B300590013384F89B30FAE600BFD2
S2140073B098410020B4150300A8410020D34D621068
S2140073C0F82401009C4100207021002094410020F8
S2140073D0B4F93030002B06DB47F6FF718B4207D03E
S2140073E001331BB22386B4F9401099423FF7C9AE69
S2140073F0204601F073FF38B1236F002B7FF4C0AE38
S214007400E36E002B3FF4BCAE237D022B15D094F820
S21400741042203848B4F93C10B4F93E300C2A94BFE8
S21400742080180C3003EBE103017E47F6FF728B40B9
S2140074309342A8BF1346A4F84030B4F84820B4F8E6
S2140074406030618EA4F84810934228BF13464A0065
S21400745092B25B089342A4F84A304FF000004FF017
S2140074600003208638BFA4F84A20A4F86A302046D5
S21400747002F086FA227D012184E62046A1462C46AB
S21400748002F0DAF8002C7FF44EAEC0E601230F4679
S214007490059387E6238B626A216D0293E38A019344
S2140074A0231D00932046234601F0D2FF3CE7012B24
S2140074B0D4F890507FF62DAF0A2B3FF42AAF25E77D
S2140074C00133DBB2994284F898307FF64EAE012144
S2140074D0002757E6084A136022E7E7683760AEE6FB
S2140074E0204602F0A9F800287FF4D4AE0746227D95
S2140074F0012147E6B4150300984100202DE9F84F16
S214007500DFF87481DFF8749198F80030013388F85A
S214007510003041F2D06B574B1C68002C6CD098F8AA
S2140075200020A37F934230D0638BA277D90748D43C
S2140075301A0732D4A56FE76815B3D4F8846095F8B7
S2140075400DA0002389F80030A367002E56D02A46E7
S21400755021462069B047E0B91AF0200F0CD0238DE1
S2140075605B4501D001332385D4F8845025B1002330
S2140075701A4621462069A84799F80030002BCAD140
S2140075803C46002CCBD1BDE8F88FE468002CC6D171
S214007590F9E70D3018BFA567EEE7227D23F0080354
S2140075A0042A638303D0072A1ED0032AC2D12046AA
S2140075B001F0F0FD88B905232375204602F03CF85B
S2140075C0B8E743F002036383204602F035F8638B86
S2140075D023F003039BB26383AAE70130AAD1638B2F
S2140075E043F008036383A5E7204601F0D3FD002897
S2140075F0F3D109232375E0E7BDE8F88F228D2B89A8
S21400760013449BB25B451BD941F2D0610B46666AB8
S214007610E06A628E238540F6683E724594BF821803
S21400762000EB0E0231448A1A002A18DB0A1A40F2CE
S214007630B3518A42638507D82846FFF733F88BE7AD
S2140076409A42E1D81946E2E7638B43F0020363836C
S214007650204601F0F1FF2846FFF724F87CE7331AAE
S214007660002BD4BF831B002363852846FFF71AF838
S21400767072E700BF9841002070210020944100204E
S21400768008B5FFF73BFF064A53780133DBB2537069
S214007690DB0700D408BDBDE80840FFF72BBD00BFE0
S2140076A07021002000285DD0F8B5856FD0F8846082
S2140076B06F7B00230446836756B301462A4600695B
S2140076C0B04768B10D3020D0A5676FF00400F8BD54
S2140076D0331A002B49DD002363852846FEF7E2FFB8
S2140076E0BB0610D5238DD4F8845041F2D062934265
S2140076F01CBF0133238535B100231A462146206975
S214007700A8470D3001D00020F8BD6FF00C00F8BD82
S214007710018D2A890A4492B241F2D0639A421DD959
S2140077201A46666AE06A618E228540F6683E7145B2
S21400773094BF411800EB0E013344591A0029C7DBE9
S2140077401B1A40F2B3518B426285C6D9638B43F055
S21400775002036383204601F06FFFBEE79142DFD845
S2140077601346DEE76FF00F007047831BB4E700BFD9
S21400777078B138B504466368256818460BB1FEF73D
S21400778091FF2146042007F0CBF92C46002DF2D1BC
S21400779038BD704758B110B50446406808B1FEF7CA
S2140077A081FF21460420BDE8104007F0B9B97047B4
S2140077B038B50546042007F0A3F9044650B16868BA
S2140077C02968AA68EB6860602160A260E360606870
S2140077D0FEF7AAFF204638BD2DE9F84305460220ED
S2140077E007F08EF9044650B39C220021204625F06F
S2140077F08DFB6B4A6B4B16686B48657540F66835B3
S21400780093F800E069496A4A6A4B2662FF274FF4FC
S2140078100676A4F86450A0624FF006154FF6FF7087
S21400782084F81EE0E7726686C4F83E502086A1649F
S214007830C4F88420C4F894302046BDE8F8835E4E31
S21400784034682CB34FF005084FF0090901E03C46B8
S214007850F7B1638BE7681A07F9D5227D23F0080392
S214007860042A638303D0072A3FD0032AEFD1204699
S21400787001F090FC28B984F81480204601F0DCFE64
S214007880E5E70130E3D1638B43F008036383DEE76B
S2140078904A4B1B688BB1424A196A14681846611A2B
S2140078A005E01A6AA21A8A4224BF11461846DB6807
S2140078B0002BF6D10121FFF719FB022007F020F973
S2140078C00446002890D13168D9B1354B2246186855
S2140078D001E0C96889B10B7D092BFAD10B6AC31A7E
S2140078E0934224BF1A460C46F3E7204601F052FCAA
S2140078F00028C6D184F81490BFE714B12046FFF7DD
S214007900F5FA022007F0FCF8044600287FF46CAF76
S214007910316899B1224B2246186801E0C96849B11E
S2140079200B7D082BFAD10B6AC31A934224BF1A4662
S2140079300C46F3E714B12046FFF7D8FA022007F00A
S214007940DFF8044600287FF44FAF2B0625D4E5B1B8
S2140079502B46134932680E68013BDBB200207AB131
S214007960577D9F4205D2116A701A3B461446D2686C
S214007970F5E7FCD1116AA6EB010E8645F7D3F3E7CF
S2140079801CB120460121FFF7B1FA022007F0B8F833
S214007990044600283FF450AF26E77F23D9E700BF10
S2140079A09C41002070210020D016D0160100680BE4
S2140079B0356E000000DD6D0098410020A8410020D3
S2140079C030B1037D012B03D90A2B01D0FFF7E4B8B1
S2140079D0704700BF02688A4210B50C462FD04AB1E5
S2140079E0D368994227D02BB1DA68944224D0134644
S2140079F0002BF9D1237D0022E2605BB10A2B0CD06C
S214007A00012B0AD02046FFF7C7F8237D0A2B04D0A7
S214007A10012B02D0638BDA0703D400232375E3829D
S214007A2010BD43F002036383204601F005FE0023E9
S214007A302375E38210BD1346E268DA60DAE7CB68A6
S214007A400360D7E7034B044A58681268104458602E
S214007A50704700BF000000209C41002051B18B8D74
S214007A6043B1282B05D9283B9BB2984228BF18461D
S214007A7070470020704700BF08B1026802B970471F
S214007A80F8B5224B1C6805460E46ACB121688A4202
S214007A904FF6A96705D0E46874B12A6821688A425F
S214007AA0F9D192B2BA4220464FF00101F3D0E46811
S214007AB0FFF71CFA002CF0D1154B1C684FF6A9678F
S214007AC034B1226829688A4212D0E468002CF8D1C2
S214007AD0D6B133685BB10F4B1B6843B119682A688F
S214007AE0914204BF32681A60DB68002BF6D1F8BDFD
S214007AF092B2BA4220464FF00101E6D0E468FFF7A2
S214007B00F5F9002CDDD1E3E7F8BD00BF9841002071
S214007B10A4410020A041002070B5446F74B1064611
S214007B206368256818460BB1FEF7BCFD21460420A5
S214007B3006F0F6FF2C46002DF2D1756770BD00BF2B
S214007B402DE9F041C368054698890F4602F03AFAD7
S214007B50C20748D4002F36D0F968254ED1F804E085
S214007B602B8930683A89A3EB0E0303449A1A002A3D
S214007B70B8BF3C4612DA2AE03C683846FFF70AFEF1
S214007B800CB3E16830682B89D1F804E022890344FD
S214007B90A3EB0E039A1A002A19DB2746888902F0FF
S214007BA011FAC307E8D5D5F80C800120B8F80C40C8
S214007BB002F008FA20433C68A8F80C003846FFF7A5
S214007BC0E9FD002CDDD100242C60BDE8F081002BFF
S214007BD0FADDAEEB000081B229816868FEF798FCFA
S214007BE02C60BDE8F0813846FFF7C2FD0024EBE7C5
S214007BF0742100202DE9F04F4D4EB6F804E0BEF19A
S214007C00000F4FD0B789D6F8108000228246B068A1
S214007C10F280144613465FFA87F940F2B35B0028F9
S214007C2042D003F114054544A3EB09019E4503F138
S214007C30010CC9B235D99F428CBF2A78425C012A12
S214007C401FFA8CF451D03ED3022A3FD1991CA7428A
S214007C5089B256D8A4EB0904E4B2025D042A63D1C3
S214007C604A1C724560DADA1C92B200284CD08F4269
S214007C7052D8A1EB0901C9B20433445C9BB224027A
S214007C80974246D8A2EB0901C9B2425C2243511E74
S214007C9089B240F2B454594588BF2246AAF800205B
S214007CA020E082B9BDE8F08F03F1130141449E4500
S214007CB003F1010CF5D911F8015F012295421FFA74
S214007CC08CF42FD019D2F480BDE8F08F9A1CA7420E
S214007CD091B20FD8A4EB0904E4B2025D012A23D9BD
S214007CE013449BB201221C4699E7013523469BE7C5
S214007CF09A1C91B24444227DF0E7022DF8D1991CDB
S214007D0089B24444227DA9E7414404330C7D9BB2EA
S214007D1024024244127DB9E7414404330C7D9BB2F1
S214007D202402ADE72346C2E7F180BDE8F08F00BF2E
S214007D3074210020438BDB0610B5044606D4D0F829
S214007D4090301BB16FF00E01006998472146044839
S214007D50FFF740FE2046FFF7C5F8012010BD00BF24
S214007D60984100202DE9F843AB4D2B7D0446D806FC
S214007D7023D5636D2A68B4F860E0A06D991A0029CF
S214007D8051DB9342AB6900F08E80984200F09280FF
S214007D9076468446616C5F1A002F56DD226D9A1A6D
S214007DA0002A40F38E80204601F0C8FB636B23B1A7
S214007DB0A969A26B511A002952DBAB8B13B1227D45
S214007DC0062A13D92A68636AD11A002906DB218D90
S214007DD0C3F101035B1A1344002B05DD638B43F0EC
S214007DE002036383BDE8F883BDE8F883626A286807
S214007DF0111A012906D4C0F10106F31A1344002B08
S214007E0040F38C81831A002B48DB00F1010C218D96
S214007E10ACEB02035B1A002B40F3F2802046BDE871
S214007E20F84301F08BBB2969AB69CE89B4F86210C0
S214007E30A4F86060B142616C38BFA4F862605F1A53
S214007E40002F6265A3659C46A8DCAF8B27B97044FB
S214007E506644B04200F08A82002384F84330A5E7E7
S214007E606E49B4F93C200968C91AA1EBE20189B24F
S214007E7008B20028B4F93E300A44BCBF494208B2F2
S214007E80A3EBA303034412B29BB2A287002103EB29
S214007E90E202A4F84020E38761638EE7638B43F039
S214007EA002036383BAE7C11A0029BFF66EAF2969D9
S214007EB0CE89BBE72B69DE89B64580F0B6810346DE
S214007EC0B4E7628B51070AD522F0040292B2B4F8E6
S214007ED04A0062830021A4F84800A4F86A10E18FE3
S214007EE0B4F93C60207D6364032801EBE6034FF0A1
S214007EF00001A4F8403084F8421084F8431000F2E1
S214007F009881276FA7B961E278683E68FEF700FCA3
S214007F10B4F86620E98B101AA4F866003B89384648
S214007F200B44EB83FFF736FC002E00F04F823746FB
S214007F30FB68586802F04AF8FB68B7F808800646FF
S214007F40988902F03FF8AB6910F00300A6EB030631
S214007F5018BF0120464430440028D5DDE66E27676A
S214007F60A6B928E270683768FEF7D2FBB4F8662038
S214007F70E98B101AA4F86600338930460B44EB836D
S214007F80FFF708FC002F00F015823E46F36858689D
S214007F9002F01CF8F368B6F808800746988902F0E5
S214007FA011F8AB6910F00300A7EB030718BF012018
S214007FB0474438440028D5DD276FE666B7FA87F3CE
S214007FC05B095942002221862277B4F86420E88BA8
S214007FD0618B0244A4F864200A057FF5E7AE002B07
S214007FE040F03282FB68E66C586801F0EFFF301A0A
S214007FF000283FF7DBAE638B23F400636383D5E68C
S214008000824200F0AB80666F002E00F048820027A8
S21400801000F1FF3812E000BF742100209C410020D0
S214008020FA685268A8EB0202002A03DBBEF1000FD2
S21400803040F3EE8132683746BAB11646F1684B68AF
S2140080409842ACEB030E00F0C381002FE8D1C21AB1
S214008050002AEFDA9D48FFF7ABFB00283FF4DEAEC0
S21400806060673146FFF76CFDD8E6C31A002B7FF732
S214008070D5AE888901F0A6FFC2073FF5CFAE93487C
S214008080FFF796FB306000283FF4C8AEF3683289ED
S21400809059682B680A44D21A002A05DD5B1A99B281
S2140080A031817068FEF734FAAB8B2868616A228DDE
S2140080B003445B1A9B1A002B7FF7B0AE3368DB686D
S2140080C0988901F07FFFC30710D53368D3F80C807A
S2140080D0B8F80C70384601F075FF00F03E0001F06D
S2140080E071FF27F47C570743A8F80C702868218D89
S2140080F0626A3368091A114489B219815868FEF712
S21400810007FA3368DA681E89908901F05BFF10F081
S214008110030018BF01200644AE837FE6686A2E8DF2
S2140081200289438989B2521A761A8B4292B22E85F8
S21400813008D20026468102810068C91A438989B29E
S2140081408B42F7D3FEF760FA238DE96A626A4A60CB
S214008150C3F10103002B2A603FF760AEEB6A2E8D59
S214008160988901F02FFF10F0030318BF0123334452
S214008170228D9BB29A42AB83C0F0BB81626F002A0D
S2140081807BD0EB6A988901F01DFFC10771D4676F39
S214008190002F00F0EB81F868AB8BD5F80080D0F8A4
S2140081A004E03A8903EB0801A1EB0E0CACEB0202EB
S2140081B0002A18DA78E13E683846FFF7EBFA002E18
S2140081C000F0C081F068AB8BD5F80080D0F804E0F2
S2140081D0328903EB0801A1EB0E0CACEB0202002A7D
S2140081E0C0F263813746808901F0ECFEC207E2D513
S2140081F0EB6A988901F0E6FE8307DCD4D5F82C906C
S2140082000120B9F80C8001F0DDFEEB6A2E8D48EAFD
S2140082100000A9F80C00988901F0D4FE10F00300C5
S21400822018BF01200644AE83C5E77646844603465B
S214008230B0E5B4F84810B4F84A308B42BFB240F20A
S214008240D78012F4006F638E0CBF0222012213FB4C
S21400825002F39BB2BB4294BFCF18CF19BFB2B9424C
S21400826000F2D180A4F848704BE603686367FFF716
S21400827091FA606F0028F8D1AB8B29681944228DDB
S2140082806162D31A23852046FEF712FF6B6A1A89AD
S21400829012B100222B636A62EB6A988901F092FEA3
S2140082A0C00705D595F8343043F0200385F8343000
S2140082B0666F002E00F0D780F368616A5A688A42BB
S2140082C040F0D18000274FF0070825E094210020D9
S2140082D0FEF730FA7760F368988901F073FE10F0C5
S2140082E0010F30460AD095F83430227D43F0200343
S2140082F0042A85F8343008BF84F81480336863672E
S214008300FFF748FA666F002E00F0AD80F368616AEA
S2140083105A688A4240F0A7802A609889B6F8089082
S21400832001F050FE636AF26810F003004B4418BF79
S2140083300120184460629089B6F8089001F042FE69
S21400834010F00300238D18BF01204844181A20851A
S2140083502046FEF7ADFE73681A89002ABBD02A6B4A
S21400836019461046002AB3D12B63B3E7B4F93000A0
S2140083700028FFF671AD99427FF46EAD94F8430085
S214008380431CDBB298423CBF184684F843300328AF
S21400839040F2D180B4F84820638E13449BB24FF667
S2140083A0FF719A4288BF0B46A4F84830204600F07A
S2140083B0FBFFFBE4276FB7FA87F35B0900265A42F8
S2140083C02286E6662677A4F86860FEE50027C5E5FF
S2140083D02A8D33899A427FF621AD6748FFF7E8F980
S2140083E000283FF41BAD002F00F0B080386038E660
S2140083F0B4F86A201744BBB29A423ED899423ED996
S214008400A4F86A307DE54FF6FF73A4F8483078E5A7
S2140084105948FFF7CDF9804600283FF4FFACFA68CC
S2140084203B8951682A680B449B1A002B05DD521ABB
S21400843091B239817868FEF76BF8C7F8008031464C
S2140084404046FFF77DFBE9E44EB1F368E66C5868FA
S21400845001F0BCFD301A00283FF7A8AC618B21F470
S21400846000616183A2E4638BD90713D523F001036F
S21400847043F002036383BDE8F8834FF6FF73628E12
S2140084800A4492B25B1A9142A4F86A30BBD8A4F8A8
S214008490482036E543F001036383BDE8F883364899
S2140084A0FFF786F96067B9E43E46BCF1000F1EDDB3
S2140084B0AEEB080EEB6AA5F828E0988901F082FD7D
S2140084C08707298D02D5013989B22985686AFEF7A2
S2140084D01FF8EB6A2F8D988901F074FD10F00303E6
S2140084E018BF01233B4429689BB2AB8319446667D7
S2140084F0C5E6EB6A988901F065FDC60728D4228D8B
S214008500EB6A2A85988901F05DFD8007298D02D5E2
S214008510013989B22985686AFDF7FAFFEB6A2E8D64
S214008520988901F04FFD10F0030318BF0123334470
S2140085309BB2AB8322E63FF439AF636B002B3FF46C
S21400854042AC36E4AB8B29681944D0E7606788E50F
S214008550EF6ABE89304601F035FD00F03E0001F0BE
S21400856031FD26F47C560643BE81C8E7AB8B2968EE
S2140085703E461944BBE700BF942100202DE9F04F8A
S2140085804389B04D42682A61132B89B0044605D949
S214008590AD4E3168706905F029FD28B1204609B056
S2140085A0BDE8F04FFEF77EB8736903F0F003E02BEA
S2140085B0F4D006F1140106F11007228900913B461B
S2140085C00621204602F030F880460028E6D12B69C6
S2140085D0988901F0F7FC810A01F0FC011329DDD926
S2140085E022898BB29A42D9D36089C5F80880A3F154
S2140085F0140292B29842AA80C0F0B3802046AA81A4
S214008600FEF702F8D5F81080B8F8000001F0DAFCA2
S214008610D5F81090A8F80000B9F8020001F0D2FCD6
S214008620D5F81080A9F80200D8F8040001F0CEFCB6
S214008630D5F81090C8F804002860D9F8080001F0B2
S214008640C5FCD5F81080C9F80800A861B8F80E0077
S21400865001F0B8FC2B69A8F80E00988901F0B2FC6E
S214008660C3B203F03F0299072A75B4F808C040F079
S214008670DF80A5F81CC0CDF810C0DFF8D8B1DBF855
S2140086800090B9F1000F00F08C8032690692726992
S2140086900792D6F804E029690593C84600220BE045
S2140086A09EF838000130C0B2834209D0D8F80C00DA
S2140086B04246002874D0804698F80830002BEFD148
S2140086C0B8F818A008888245F0D1B8F816A04888EF
S2140086D08245EBD1D8F80400069B9842E6D1D8F83C
S2140086E00000079B9842E1D1059B32B1D8F80C00F8
S2140086F0D060CBF80080C8F80C9000221B07A5F8C5
S21400870028C06C62E9622A622A6385F83420EA830C
S21400871003D5637B43F001036373D8F87830002BEE
S21400872000F09A804046FEF7BDFF0D3008D0D8F81E
S2140087307830002B00F09080AB8B002B00F08C8004
S214008740B8F82A30002B00F0B382404E686A002446
S21400875034602C6310B1FDF7A5FF6C6209B0BDE86C
S214008760F08F14212046FDF74FFF6189B5F804808D
S214008770A9812046A8EB0108FDF746FF206843893B
S2140087801FFA88F84345FFF409AF4368AB604146DB
S214008790FDF73AFF2389A3EB0808A4F8088031E721
S2140087A0059B2B4A1068002800F0D880D6F804C035
S2140087B0D5F810E0D6F810A0D6F814901A4609E0BE
S2140087C09CF838300133DBB2994206D0C0680028E6
S2140087D000F0C380017A0029F2D1038BBEF80010A6
S2140087E09942F3D1C38ABEF802809845EED1436819
S2140087F05345EBD103684B45E8D113465A073FF57E
S214008800CDAE9E0740F16F832A68436AD31A04D41C
S214008810068D9B1B002B40F36D83049B002B3FF4BF
S214008820BDAE438B43F00203438300F005FFB5E67D
S2140088300CF1010292B294450492AA833FF6AEAEC2
S2140088401BE700BF74210020B0410020AC4100208F
S214008850A8410020984100202C7DB84E6007C6F83D
S214008860008025D598F81430022B00F02582D8F821
S21400887024202B689A4200F025829B1A04D4B8F86C
S21400888028209B1A002B1DDD95F834301C0720D5B8
S214008890D8F8903023B16FF00D01D8F81000984743
S2140088A04146A748FFF796F84046FEF71BFB4DE704
S2140088B014F0020900F00B8198F81430023B012BEB
S2140088C040F20581B8F81A3043F00203A8F81A30CF
S2140088D0DAE7EA8B5AB1D8F8803033B14146D8F897
S2140088E0100098470D303FF431AF0023EB8395F826
S2140088F03430D80600F1F3812A6BB2B1B8F81A30DA
S21400890013F0100340F00382D8F88440002C00F0E7
S21400891048824146D8F81000A04710F10D0F3FF4EA
S21400892015AF10B12B6BC8F8783095F8343099062F
S21400893008D5D8F87830002B00F03F825A7B42F0FA
S21400894020025A7395F8343000223260DA0600F1BD
S214008950E581404600F070FEF8E61346794A126854
S214008960069242B34FF000097169D6F804A0D5F814
S21400897010C00591C846CE4609E09AF83810013175
S214008980C9B2884206D0D168964689B10A46107A9E
S2140089900028F2D1D08ABCF802108842F3D11168C0
S2140089A0059881421DD0002904BF9146F046EAE7AB
S2140089B0B9F1000F17D12B69988901F003FB10F06D
S2140089C004007FF4EBAD2B69A98B1A8802922A6803
S2140089D05B88019300970A445B4BA96900F038FD59
S2140089E0DCE59146F046B8F1000F09D0D9F80C2026
S2140089F05449C8F80C20069AC1F80090C9F80C2013
S214008A005A073FF5CBAD13F0100840F06F819F0773
S214008A107FF5C4AD99F81500FEF7DEFE0746002880
S214008A2000F0B28129692B6891F801E00A78316973
S214008A3042EA0E220133B9F816E002837269026038
S214008A400326A0F816E041604362C3620675FEF78F
S214008A50F9FF2B68D9F810203A61013BB8653865F4
S214008A607864F8657B65C7F87C9099F80930DBF880
S214008A700020CBF8007003F00C037B7299F80830E6
S214008A803B72FA6001F074F9304B012207F13200B4
S214008A901A70FFF7AFF82B697E8EDB89A7F8603077
S214008AA03D1DA7F86230284605F03CF82A460146E8
S214008AB03046FEF7D3FF12217886384600F0C4FB16
S214008AC0002840F07481384600F0B6FD66E5B8F838
S214008AD01A30D90603D41E4B1B68C8F82030002372
S214008AE088F89B3088F89A3008F13200FFF782F851
S214008AF098F81430023B072B3FF6C6AEDFE803F0CB
S214008B00B67E6C9B4D6C2A044046FFF72BF92B7DF6
S214008B10DF067FF5B9AED8F85020AB699A427FF4ED
S214008B20B3AED8F86C30002B7FF4AEAE95F8343088
S214008B3043F0100385F83430A6E600BFAC410020B1
S214008B4098410020A0410020C4410020944100200C
S214008B509C4100204046FFF705F92B7DDB067FF59C
S214008B6093AED8F85020AB699A427FF48DAED8F811
S214008B706C30002B7FF488AE4046FEF721FFDBF812
S214008B800030984500F0FB80002B00F0D180DA68BA
S214008B90904500F0CA801346F6E74046FFF7E2F835
S214008BA095F834309A067FF56FAEB8F81A3043F071
S214008BB00203A8F81A304046FEF702FFDBF8003042
S214008BC0984500F0DC80002B00F0B280DA68904513
S214008BD000F0AB801346F6E74046FFF7C3F895F87B
S214008BE034309C067FF550AEB8F81A30072243F0B2
S214008BF00203A8F81A3088F8142045E6E30640F188
S214008C006381D8F84430A969DB43CB4205D4D8F851
S214008C105030CB1A002B40F371812B69A88B1A8831
S214008C2002922A685B88019302440097C04B404634
S214008C3000F00EFC28E64046FFF794F895F834302E
S214008C4013F0200F2B7D00F0D080D80604D5D8F87E
S214008C505020AB699A427AD0B8F81A30082243F00E
S214008C600203A8F81A3088F814200DE604F0120360
S214008C70122B00F0CC80E2067FF506AE2B69A98B9E
S214008C801A8802922A685B88019300970A44A84BC8
S214008C90A969404600F0DCFB98F84230052B3FF609
S214008CA0F3AD0023A8F83030404600F073FEEBE545
S214008CB0404600F043FC48E5D8F85020AB699A429D
S214008CC07FF4E2AD95F83420B8F81A3042F0080286
S214008CD023F0010385F83420A8F81A30D4E540467E
S214008CE0FFF728F800287FF431AD05E6BCF8003021
S214008CF00293BCF802302A6801934846049B00970A
S214008D0013441A46A9698A4B00F0A2FB46E41046B3
S214008D10FDF7C8FC4046FEF7C7F917E54046FFF7E3
S214008D2009F800287FF412AD13E6D8F80C20DA60B4
S214008D30804B814A1968C8F80C100A20012188F86F
S214008D401400C3F80080117001F012F89CE5D8F802
S214008D506C30002B80D1B8F81A3043F00203A8F824
S214008D601A304046FEF72CFEDBF80030984506D059
S214008D70002BDDD0DA689045D7D01346F8E7D8F850
S214008D800C30CBF80030D3E7D9F81830002B3FF47E
S214008D9005AC01464FF0FF32D9F810009847FFF7B0
S214008DA0FDBB234620464146FEF744F8B5E541465E
S214008DB03846FEF79BF8FFF7F1BBB8F82830D8F82E
S214008DC0844041F2D06293421CBF0133A8F8283099
S214008DD0002C3FF4B7AD00231A464146D8F81000E1
S214008DE0A0470D307FF4AEADB0E4D9067FF54CADAC
S214008DF0D8F85020AB699A427FF446ADD8F86C306C
S214008E00002B7FF441AD062388F814303CE5D8F8F3
S214008E104420AB6901329A427FF42DAF2B68296952
S214008E20C8F844205A1CC8F82420C8F82C20CA8940
S214008E30A8F86020042108EB0104013BC8F8543070
S214008E40A8F8622088F814102046B8F8327004F0AB
S214008E5069FE224601463846FEF700FE41F21C1324
S214008E6042009A4214464FEA800138BF1C46A1428F
S214008E70A8F8320080F087808BB2B8F86620D8F861
S214008E807000A8F84830531EA8F86630002874D042
S214008E900368C8F87030FEF77DFCD8F87030002BF9
S214008EA042D0002388F84230D8F88840A8F83030FE
S214008EB0002C3FF407AD00224146D8F81000A0472A
S214008EC00D307FF4FFAC41E4B9F1000F3FF4DCACA9
S214008ED0D8F824302A68013B93427FF4D5AC40464C
S214008EE000F02CFAD0E4D9077FF597AC134B1B683B
S214008EF0036292E40291CDF80480FFE6D8F87C3055
S214008F00042288F81420002B3FF404AF9B69002B42
S214008F103FF400AF00224146D8F81000984778B1D9
S214008F200D307FF4F7AE11E44FF0FF33BCE700BF1F
S214008F30C4410020A8410020944100209C4100200C
S214008F404046FEF70FFFEB8B0BB1013BEB83B8F807
S214008F50322041F21C135100994208464FEA820221
S214008F6038BF1846824212D293B295F83420A8F839
S214008F70483097067FF588AC36E6D8F86C0003686C
S214008F80C8F86C3087E79A4288BF93B275E7994273
S214008F9088BF8BB2E9E700BF034A92F8343043F04B
S214008FA0100382F834307047742100202DE9F84F02
S214008FB09DF82CB00BF00104002C81464FF0040005
S214008FC0884615461E460BBF4FF4A0474FF4C047D1
S214008FD04FF0000A824605F093FD044600283BD079
S214008FE080F80AB02B894560A3EB0A034FF0000A0D
S214008FF0038114212846C4F800A0FDF7E1FA0546CF
S21400900028BB6368B9F80000D3F80490C4F80C9045
S21400901000F0D8FFA9F80000B8F80000D4F80C80DB
S21400902000F0D0FFA8F802000A98D4F80C8000F0F0
S214009030CDFFC8F8040047EA0600E66800F0C2FF65
S214009040E368B0819D74DD742046BDE8F88F204645
S214009050FEF7A0FB5446F7E72846FDF723FBF3E7A9
S2140090602DE9F04FC66E83B04EB3002900F08E8017
S2140090703289914228D296F80A80521A18F00107CF
S21400908018BF042794B20D46E119814689B24FF401
S21400909020723620FDF754F9824680B17068328916
S2140090A00389DAF804109B1A2B449BB239442246F3
S2140090B0FDF7CEFB84420BD05046FDF7F3FA4FF097
S2140090C0FF3003B0BDE8F08F002003B0BDE8F08F9E
S2140090D0F368988900F076FFC0B210F0080B4FD105
S2140090E000F03F070123FA0748BF9B46F36858681D
S2140090F048BF07F0FE0700F069FF28448DE801012D
S2140091005B46524609F1180109F11600FFF74EFFBB
S21400911005460028D0D07068FDF7FAFA7268B9F8EC
S21400912066301189181A091B89B2A9F8660010461C
S214009130FDF7EEF93389D6F80C801C1B34813846CF
S214009140B8F80C4000F03EFF2043A8F80C0070680A
S214009150FDF7DEFAB9F866301844A9F866006868C4
S214009160FDF7D6FAB9F8663032681844A9F86600F2
S2140091702A60356028680028A6D1A9F86800A0E70C
S21400918000F0370709234FF0080BACE76FF0050037
S21400919097E700BFF0B5C46E83B005460CB90AE089
S2140091A01C462368002BFBD1E368988900F00AFF71
S2140091B010F0070631D04FF4207200213620FDF75C
S2140091C0BFF8002839D0EB6D0093002201920123EE
S2140091D0024605F1180105F11600FFF7E7FE60B339
S2140091E0EA6E0AB927E01A461368002BFBD1106016
S2140091F0EA6D6B8B406843F02003013200246B83DA
S214009200EA65A5F86840FDF783FAB5F866300344CA
S214009210A5F86630204603B0F0BDE7680120BC899B
S21400922000F0D0FE6B8B2043B88143F0200330461D
S2140092306B8303B0F0BDE866DAE76B8B43F0800320
S2140092406B834FF0FF30E6E770B50D4611F0020174
S21400925082B0044618BF04214FF420724FF0360047
S2140092600CBF0E460126FDF76BF800282FD0E36DE5
S2140092700093024601962B4604F1180104F11600ED
S214009280FFF794FE18B3E26E0AB91EE01A4613689A
S214009290002BFBD110600023AA07A4F8683002D088
S2140092A0E36D0133E365EB070AD44068FDF730FA57
S2140092B0B4F866301844A4F86600002002B070BD0A
S2140092C0638B43F020036383EFE7E066E3E7638B9B
S2140092D043F0800363834FF0FF30EFE7026F52B333
S2140092E0F8B515466B682C689B7B2CB1012B254680
S2140092F0F8D06FF00500F8BD012BFAD1438BE96872
S214009300064643F40063C06E28607383F2663467D3
S214009310486800F05BFEEB682D890746988900F0E8
S21400932051FE10F003002F4418BF01203844F064AB
S21400933074632046F8BD6FF005007047F8B5066FF9
S2140093401EB173689B7B012B02D06FF00500F8BD41
S214009350C36E32680267074600F16C051BB90FE062
S2140093602D682B6863B1DB68586800F02FFEF36841
S2140093700446586800F02AFE201A0028F0DB2B6806
S21400938033602E6033685BB197F84230FF2B18BF0E
S21400939001334FF0000018BF87F842307863F8BDFD
S2140093A0A7F86830F0E700BFF8B5076F17B1428B33
S2140093B0530700D5F8BD7B689B7B012BFAD1C36EA3
S2140093C039680167064600F16C0523B911E02D687F
S2140093D02B68002B37D0DB68586800F0F7FDFB6879
S2140093E00446586800F0F2FD201A0028EFDB728B66
S2140093F02B683B602F603B683BB396F84230B6F86C
S2140094004810FF2B1CBF013386F84230B6F8603098
S214009410994238BF4B08718E4FF0000028BF5B089A
S214009420706348008342A6F84A3001443CBF83B2CA
S214009430A6F84A3042F004020B440021A6F8483051
S21400944072833186F8BD728BD3E7A6F86830D4E70E
S2140094502DE9F04F85B006460846914698460E9F81
S214009460BDF83C40BDF840B000F0B0FD4FF42072AF
S214009470824614212220FCF763FF002842D00546CE
S21400948020466C6800F09EFD2080584600F09AFD4D
S214009490C4F804A06080484600F098FDA06045F23D
S2140094A0140000F08FFDA0814DF2160000F08AFD3A
S2140094B00023E08123746374A374E3745EB3307A8C
S2140094C018BB384604F02EFB0446A8B1D5F8049025
S2140094D02A89009743460621284601F0A5F8A9F8F0
S2140094E01000F37AB67A02940620019000963A4667
S2140094F04146284604F076FC284605B0BDE8F04F05
S214009500FDF7D0B805B0BDE8F08F05F087FC04463F
S2140095100028DBD1F0E7384604F004FB04460028B8
S214009520EAD0D5F804902A890097434606212846B3
S21400953001F07AF8FF23A9F81000D4E72DE9F047E8
S214009540044684B0006D00F041FD4FF42072814661
S21400955014212220D4F82480E58AB4F818A0678D58
S214009560FCF7EEFE00285DD006462846756800F03B
S21400957029FD2880504600F025FDC5F80490688037
S214009580404600F023FDA86045F2100000F01AFDEA
S214009590A881384600F016FD00232B746B74AB745C
S2140095A0EB74E881628D636A207A1344E362251DBA
S2140095B0A0BB284604F0B6FA074617B33289D6F899
S2140095C00480009523460621304601F02DF8A8F8C1
S2140095D01000A07AE37A029706218DE803002A4657
S2140095E02146304604F0FEFB05463046FDF75AF8A5
S2140095F065B9638B284623F00303638304B0BDE894
S214009600F0873046FDF74EF86FF00305638B28466B
S21400961043F00303638304B0BDE8F08705F0FEFB68
S2140096200746CAE7638B6FF0010543F0030328463D
S214009630638304B0BDE8F087B84B1B68834200F034
S2140096407A812DE9F04FB0F84830B0F86080C56EEA
S214009650984587B0044628BF9846002D00F05481F0
S214009660007A04F1040A002840F06081504604F0B5
S21400967059FA05900346002B00F05F81236813B962
S214009680059B5B682360EB68586800F09FFC2B899D
S214009690626C9B1A184440450FD9B4F860304345B5
S2140096A000F05B81628B910700F1688122F08002F6
S2140096B06283002007B0BDE8F08F266F002384F891
S2140096C099300EB903E01E463368002BFBD14FF0ED
S2140096D00009574619E0236FC5F80090002B00F0EC
S2140096E0BC80EB68586800F071FCF36883465868E5
S2140096F000F06CFCABEB00000028C0F2B1803560D7
S2140097002E46E56E002D00F01B81EB68586800F0D1
S2140097105DFC636C2A89C01A1044404500F216812D
S214009720236F63B1638B13F0440F1A4607D1E16EC3
S214009730002900F0D7800868002800F0CD80237D3F
S214009740022B0AD0D5F80CA01020BAF80CB000F006
S21400975039FC4BEA0000AAF80C006B689B7B012BD7
S2140097602FD0237D2A68E266022B03D0638B23F07A
S21400977003036383EB68586800F028FCEA68B5F8D2
S21400978008A08346908900F01DFC10F00300236DAE
S214009790D34418BF012058441B1A002BEB68B8BFEF
S2140097A020659889B5F808B000F00CFC10F00300AE
S2140097B018BF012010EB0B0F8DD12846FDF7EAFFEE
S2140097C09FE7606AD5F80CB000F000FCCBF8080004
S2140097D0608DD5F80CB000F0F5FB628D636AABF8CF
S2140097E00E001344E362AB7AD5F80CB0DB0764D402
S2140097F0B4F93030002B636BB8BFA4F83090002B60
S21400980050D06868436802894189C0F804B0ABEB61
S21400981003039BB2D21A92B2CB1A4381028123462B
S2140098208BF810908BF811900621009700F0FCFE44
S214009830ABF81000A27AE37A6868059900920622CF
S2140098400291019221463A4604F0CCFA002888D0CC
S214009850638B43F0800363832CE725672E4650E72F
S214009860236F04F1700ACBB122465446924603E0B9
S21400987024682368002B55D0DB68586800F0A6FBE8
S214009880EB688346586800F0A1FBABEB00000028AD
S214009890EEDB5346A2461C46DAF800302B60CAF8C8
S2140098A000502EE71E4B1B686363DBF8040000F0D5
S2140098B08DFBD5F80CB0A063A3E73A46059940F2B5
